S02700006F6E5F64656D616E645F747261666669635F6C696768745F636F6E74726F6C2E7372656343
S11300000C942A000C94ED000C943C000C943C00DD
S11300100C943C000C943C000C943C000C943C006C
S11300200C943C000C943C000C943C000C943C005C
S11300300C943C000C943C000C943C000C943C004C
S11300400C943C000C943C000C943C000C943C003C
S11300500C943C0011241FBECFE5D8E0DEBFCDBF19
S113006020E0A0E6B0E001C01D92A536B207E1F79A
S11300700E944A020C94A0030C94000060E081E00A
S11300800E943B0261E081E00E943B0262E081E069
S11300900E943B0260E080E00E943B0261E080E05D
S11300A00E943B0262E080E00E943B0263E083E046
S11300B00E9437020E947B030E947303089581E02B
S11300C08093600060E00E943F0262E080E00E9452
S11300D03F021092620009C00E947F030E949E03A7
S11300E0809162008F5F809362008091620084310E
S11300F098F362E080E00E94430282E08093600013
S11301001092620015C061E080E00E943F020E94EC
S11301107F030E949E0361E080E00E9443020E94EC
S11301207F030E949E03809162008F5F8093620030
S1130130809162008A3038F361E080E00E944302DB
S113014060E081E00E94430283E08093600062E00B
S113015081E00E943F0260E080E00E943F02109232
S1130160620009C00E947F030E949E038091620086
S11301708F5F8093620080916200843198F360E025
S113018080E00E94430282E080936000109262004B
S113019015C061E080E00E943F020E947F030E943C
S11301A09E0361E080E00E9443020E947F030E945C
S11301B09E03809162008F5F809362008091620051
S11301C08A3038F361E080E00E94430262E081E01B
S11301D00E9443020E945F0008951F920F920FB67F
S11301E00F9211242F933F934F935F936F937F93B9
S11301F08F939F93AF93BF93EF93FF9381E080938B
S1130200610080916000823009F473C0833009F486
S1130210D9C0813009F01AC162E080E00E94430233
S11302201092620011C061E080E00E94470261E028
S113023081E00E9447020E947F030E949E038091F6
S113024062008F5F8093620080916200843158F372
S113025061E080E00E94430261E081E00E94430289
S113026060E081E00E94430260E080E00E943F027F
S113027062E081E00E943F021092620009C00E9485
S11302807F030E949E03809162008F5F80936200CF
S113029080916200843198F360E080E00E94430220
S11302A01092620011C061E080E00E94470261E0A8
S11302B081E00E9447020E947F030E949E03809176
S11302C062008F5F8093620080916200843158F3F2
S11302D061E080E00E94430261E081E00E94430209
S11302E062E081E00E944302109261000E945F007C
S11302F0ADC01092620011C061E080E00E9447022C
S113030061E081E00E9447020E947F030E949E03F5
S1130310809162008F5F80936200809162008431DB
S113032058F361E080E00E94430261E081E00E94B2
S1130330430260E081E00E94430260E080E00E94AA
S11303403F0262E081E00E943F021092620009C015
S11303500E947F030E949E03809162008F5F8093BE
S1130360620080916200843198F360E080E00E9432
S11303703F021092620011C061E080E00E944702D7
S113038061E081E00E9447020E947F030E949E0375
S1130390809162008F5F809362008091620084315B
S11303A058F361E080E00E94430261E081E00E9432
S11303B0430262E081E00E944302109261000E94C5
S11303C05F0044C062E081E00E943F02109262003C
S11303D009C00E947F030E949E03809162008F5F88
S11303E08093620080916200843198F360E080E041
S11303F00E94430260E081E00E9443021092620086
S113040011C061E080E00E94470261E081E00E9447
S113041047020E947F030E949E03809162008F5FC7
S11304208093620080916200843158F361E080E03F
S11304300E94430261E081E00E94430262E081E0A5
S11304400E944302109261000E945F00FF91EF91AD
S1130450BF91AF919F918F917F916F915F914F91D8
S11304603F912F910F900FBE0F901F90189540E071
S11304700E945102089541E00E945102089541E012
S11304800E94C802089540E00E94C80208950E9494
S11304903F0308950E943E000E945F0080E090E0C8
S11304A00895813019F130F08230E1F1833009F49C
S11304B054C0089541110CC02AB381E090E002C0F9
S11304C0880F991F6A95E2F7809582238ABB089565
S11304D0413009F05CC02AB381E090E002C0880F8B
S11304E0991F6A95E2F7822B8ABB089541110CC0CB
S11304F027B381E090E002C0880F991F6A95E2F764
S11305008095822387BB0895413009F040C027B30A
S113051081E090E002C0880F991F6A95E2F7822B70
S113052087BB089541110CC024B381E090E002C060
S1130530880F991F6A95E2F78095822384BB0895FA
S1130540413029F524B381E090E002C0880F991F5F
S11305506A95E2F7822B84BB089541110CC021B344
S113056081E090E002C0880F991F6A95E2F78095B8
S1130570822381BB0895413051F421B381E090E09E
S113058002C0880F991F6A95E2F7822B81BB0895F8
S1130590813019F130F08230E1F1833009F454C034
S11305A0089541110CC02BB381E090E002C0880F84
S11305B0991F6A95E2F7809582238BBB0895413099
S11305C009F05CC02BB381E090E002C0880F991F52
S11305D06A95E2F7822B8BBB089541110CC028B3B6
S11305E081E090E002C0880F991F6A95E2F7809538
S11305F0822388BB0895413009F040C028B381E0CC
S113060090E002C0880F991F6A95E2F7822B88BB9D
S1130610089541110CC025B381E090E002C0880F19
S1130620991F6A95E2F78095822385BB089541302E
S113063029F525B381E090E002C0880F991F6A95DF
S1130640E2F7822B85BB089541110CC022B381E0EF
S113065090E002C0880F991F6A95E2F78095822383
S113066082BB0895413051F422B381E090E002C08E
S1130670880F991F6A95E2F7822B82BB0895813017
S113068089F028F08230C9F0833011F108952BB33A
S113069081E090E002C0880F991F6A95E2F78227F3
S11306A08BBB089528B381E090E002C0880F991FA6
S11306B06A95E2F7822788BB089525B381E090E02C
S11306C002C0880F991F6A95E2F7822785BB0895B7
S11306D022B381E090E002C0880F991F6A95E2F787
S11306E0822782BB0895789485B7836085BF8BB7D2
S11306F080648BBF089513BE86E082BF089583B7DC
S1130700816083BF0FC008B600FEFDCF88B781604B
S113071088BF809163009091640001969093640077
S1130720809363008091630090916400883E9340BD
S113073050F31092640010926300089513BE08955C
S1070740F894FFCF57
S9030000FC
